S00C00004D3234322E7372656333
S11300000C942A000C9434000C9434000C943400A6
S11300100C9434000C9434000C9434000C9434008C
S11300200C9434000C9434000C9434000C9434007C
S11300300C9434000C9434000C9434000C9434006C
S11300400C9434000C9434000C9434000C9434005C
S11300500C94340011241FBECFE5D8E0DEBFCDBF21
S11300600E9436000C944F000C9400001ABA8FEFD3
S113007087BB31E020E099B3909588B380959923AC
S113008059F0291749F0313021F4292F30E080E06C
S113009003C0292F31E08FEF809588BBECCFF89413
S10500A0FFCF8C
S9030000FC
