S00C00004D3234322E7372656333
S11300000C942A000C9434000C9434000C943400A6
S11300100C9434000C9434000C9434000C9434008C
S11300200C9434000C9434000C9434000C9434007C
S11300300C9434000C9434000C9434000C9434006C
S11300400C9434000C9434000C9434000C9434005C
S11300500C94340011241FBECFE5D8E0DEBFCDBF21
S11300600E9436000C9440000C9400001ABA8FEFE2
S113007087BB89B3809598B38A63809588BBF9CF91
S1070080F894FFCF1E
S9030000FC
