S00C00004D3234322E7372656333
S11300000C942A000C9434000C9434000C943400A6
S11300100C9434000C9434000C9434000C9434008C
S11300200C9434000C9434000C9434000C9434007C
S11300300C9434000C9434000C9434000C9434006C
S11300400C9434000C9434000C9434000C9434005C
S11300500C94340011241FBECFE5D8E0DEBFCDBF21
S11300600E9436000C9472000C9400001ABA8FEFB0
S113007087BB89B348B340958E3F89F030C0482F81
S1130080282F209528BB2FE536EE50E02150304034
S11300905040E1F700C00000880F991F02C081E0C2
S11300A090E0803891055CF380E890E015C0482F1B
S11300B0282F209528BB2FE536EE50E02150304004
S11300C05040E1F700C000009C01332314F42F5F7B
S11300D03F4FC901959587958230910544F7409526
S10B00E048BBC7CFF894FFCF21
S9030000FC
